{
  "_format": "hh-sol-artifact-1",
  "contractName": "Gratuity",
  "sourceName": "contracts/Gratuity.sol",
  "abi": [
    {
      "inputs": [],
      "stateMutability": "payable",
      "type": "constructor"
    },
    {
      "anonymous": false,
      "inputs": [
        {
          "indexed": false,
          "internalType": "address",
          "name": "sender",
          "type": "address"
        },
        {
          "indexed": false,
          "internalType": "uint256",
          "name": "amount",
          "type": "uint256"
        },
        {
          "indexed": false,
          "internalType": "string",
          "name": "message",
          "type": "string"
        }
      ],
      "name": "GratuityItemGifted",
      "type": "event"
    },
    {
      "anonymous": false,
      "inputs": [
        {
          "indexed": true,
          "internalType": "address",
          "name": "previousOwner",
          "type": "address"
        },
        {
          "indexed": true,
          "internalType": "address",
          "name": "newOwner",
          "type": "address"
        }
      ],
      "name": "OwnershipTransferred",
      "type": "event"
    },
    {
      "inputs": [
        {
          "internalType": "uint256",
          "name": "_amount",
          "type": "uint256"
        },
        {
          "internalType": "string",
          "name": "_message",
          "type": "string"
        }
      ],
      "name": "deposit",
      "outputs": [],
      "stateMutability": "payable",
      "type": "function"
    },
    {
      "inputs": [],
      "name": "getAllGratuityItems",
      "outputs": [
        {
          "components": [
            {
              "internalType": "address",
              "name": "sender",
              "type": "address"
            },
            {
              "internalType": "uint256",
              "name": "amount",
              "type": "uint256"
            },
            {
              "internalType": "string",
              "name": "message",
              "type": "string"
            }
          ],
          "internalType": "struct Gratuity.GratuityItem[]",
          "name": "",
          "type": "tuple[]"
        }
      ],
      "stateMutability": "view",
      "type": "function"
    },
    {
      "inputs": [],
      "name": "getTotalGratuity",
      "outputs": [
        {
          "internalType": "uint256",
          "name": "",
          "type": "uint256"
        }
      ],
      "stateMutability": "view",
      "type": "function"
    },
    {
      "inputs": [
        {
          "internalType": "uint256",
          "name": "",
          "type": "uint256"
        }
      ],
      "name": "gratuityItems",
      "outputs": [
        {
          "internalType": "address",
          "name": "sender",
          "type": "address"
        },
        {
          "internalType": "uint256",
          "name": "amount",
          "type": "uint256"
        },
        {
          "internalType": "string",
          "name": "message",
          "type": "string"
        }
      ],
      "stateMutability": "view",
      "type": "function"
    },
    {
      "inputs": [],
      "name": "owner",
      "outputs": [
        {
          "internalType": "address",
          "name": "",
          "type": "address"
        }
      ],
      "stateMutability": "view",
      "type": "function"
    },
    {
      "inputs": [],
      "name": "renounceOwnership",
      "outputs": [],
      "stateMutability": "nonpayable",
      "type": "function"
    },
    {
      "inputs": [
        {
          "internalType": "address payable",
          "name": "_to",
          "type": "address"
        },
        {
          "internalType": "uint256",
          "name": "_amount",
          "type": "uint256"
        }
      ],
      "name": "transfer",
      "outputs": [],
      "stateMutability": "nonpayable",
      "type": "function"
    },
    {
      "inputs": [
        {
          "internalType": "address",
          "name": "newOwner",
          "type": "address"
        }
      ],
      "name": "transferOwnership",
      "outputs": [],
      "stateMutability": "nonpayable",
      "type": "function"
    },
    {
      "inputs": [],
      "name": "withdraw",
      "outputs": [],
      "stateMutability": "nonpayable",
      "type": "function"
    }
  ],
  "bytecode": "0x608060405260016000556100123361005f565b61005a6040518060400160405280601f81526020017f4c4f473a20477261747569747920636f6e7472616374206465706c6f796564008152506100b160201b61077e1760201c565b610171565b600180546001600160a01b038381166001600160a01b0319831681179093556040519116919082907f8be0079c531659141344cd1fd0a4f28419497f9722a3daafe3b4186f6b6457e090600090a35050565b6100f8816040516024016100c5919061011c565b60408051601f198184030181529190526020810180516001600160e01b0390811663104c13eb60e21b179091526100fb16565b50565b80516a636f6e736f6c652e6c6f67602083016000808483855afa5050505050565b600060208083528351808285015260005b818110156101495785810183015185820160400152820161012d565b8181111561015b576000604083870101525b50601f01601f1916929092016040019392505050565b610c37806101806000396000f3fe6080604052600436106100865760003560e01c80638269f2dd116100595780638269f2dd146101005780638da5cb5b1461012f578063a9059cbb14610157578063f1215d2514610177578063f2fde38b1461018a57600080fd5b80633ccfd60b1461008b57806354b25d57146100a25780635ba23f7b146100cd578063715018a6146100eb575b600080fd5b34801561009757600080fd5b506100a06101aa565b005b3480156100ae57600080fd5b506100b761023b565b6040516100c4919061091a565b60405180910390f35b3480156100d957600080fd5b506003546040519081526020016100c4565b3480156100f757600080fd5b506100a061034c565b34801561010c57600080fd5b5061012061011b3660046109a2565b610382565b6040516100c4939291906109bb565b34801561013b57600080fd5b506001546040516001600160a01b0390911681526020016100c4565b34801561016357600080fd5b506100a0610172366004610a00565b61044b565b6100a0610185366004610a42565b61053e565b34801561019657600080fd5b506100a06101a5366004610afd565b6106e3565b6001546001600160a01b031633146101dd5760405162461bcd60e51b81526004016101d490610b21565b60405180910390fd5b600260005414156102005760405162461bcd60e51b81526004016101d490610b56565b6002600090815560405133914780156108fc02929091818181858888f19350505050158015610233573d6000803e3d6000fd5b506001600055565b60606004805480602002602001604051908101604052809291908181526020016000905b82821015610343576000848152602090819020604080516060810182526003860290920180546001600160a01b03168352600181015493830193909352600283018054929392918401916102b290610b8d565b80601f01602080910402602001604051908101604052809291908181526020018280546102de90610b8d565b801561032b5780601f106103005761010080835404028352916020019161032b565b820191906000526020600020905b81548152906001019060200180831161030e57829003601f168201915b5050505050815250508152602001906001019061025f565b50505050905090565b6001546001600160a01b031633146103765760405162461bcd60e51b81526004016101d490610b21565b61038060006107c1565b565b6004818154811061039257600080fd5b60009182526020909120600390910201805460018201546002830180546001600160a01b0390931694509092916103c890610b8d565b80601f01602080910402602001604051908101604052809291908181526020018280546103f490610b8d565b80156104415780601f1061041657610100808354040283529160200191610441565b820191906000526020600020905b81548152906001019060200180831161042457829003601f168201915b5050505050905083565b6001546001600160a01b031633146104755760405162461bcd60e51b81526004016101d490610b21565b600260005414156104985760405162461bcd60e51b81526004016101d490610b56565b600260009081556040516001600160a01b0384169083908381818185875af1925050503d80600081146104e7576040519150601f19603f3d011682016040523d82523d6000602084013e6104ec565b606091505b50509050806105345760405162461bcd60e51b81526020600482015260146024820152732330b4b632b2103a379039b2b7321022ba3432b960611b60448201526064016101d4565b5050600160005550565b600260005414156105615760405162461bcd60e51b81526004016101d490610b56565b6002600055816105a95760405162461bcd60e51b81526020600482015260136024820152722cb7ba9036bab9ba1039b2b7321032ba3432b960691b60448201526064016101d4565b81600360008282546105bb9190610bc8565b90915550506002805460010190556040805160608101825233815260208082018581529282018481526004805460018101825560009190915283517f8a35acfbc15ff81a39ae7d344fd709f28e8600b4aa8c65c6b64bfe7fe36bd19b600390920291820180546001600160a01b0319166001600160a01b0390921691909117815594517f8a35acfbc15ff81a39ae7d344fd709f28e8600b4aa8c65c6b64bfe7fe36bd19c8201559051805193949361069c937f8a35acfbc15ff81a39ae7d344fd709f28e8600b4aa8c65c6b64bfe7fe36bd19d909301929190910190610834565b5050507f9a65c3abbedf18d6fb6b9edb737add9770570bf8b465ff4336783c4617ed9a973383836040516106d2939291906109bb565b60405180910390a150506001600055565b6001546001600160a01b0316331461070d5760405162461bcd60e51b81526004016101d490610b21565b6001600160a01b0381166107725760405162461bcd60e51b815260206004820152602660248201527f4f776e61626c653a206e6577206f776e657220697320746865207a65726f206160448201526564647265737360d01b60648201526084016101d4565b61077b816107c1565b50565b61077b816040516024016107929190610bee565b60408051601f198184030181529190526020810180516001600160e01b031663104c13eb60e21b179052610813565b600180546001600160a01b038381166001600160a01b0319831681179093556040519116919082907f8be0079c531659141344cd1fd0a4f28419497f9722a3daafe3b4186f6b6457e090600090a35050565b80516a636f6e736f6c652e6c6f67602083016000808483855afa5050505050565b82805461084090610b8d565b90600052602060002090601f01602090048101928261086257600085556108a8565b82601f1061087b57805160ff19168380011785556108a8565b828001600101855582156108a8579182015b828111156108a857825182559160200191906001019061088d565b506108b49291506108b8565b5090565b5b808211156108b457600081556001016108b9565b6000815180845260005b818110156108f3576020818501810151868301820152016108d7565b81811115610905576000602083870101525b50601f01601f19169290920160200192915050565b60006020808301818452808551808352604092508286019150828160051b87010184880160005b8381101561099457888303603f19018552815180516001600160a01b0316845287810151888501528601516060878501819052610980818601836108cd565b968901969450505090860190600101610941565b509098975050505050505050565b6000602082840312156109b457600080fd5b5035919050565b60018060a01b03841681528260208201526060604082015260006109e260608301846108cd565b95945050505050565b6001600160a01b038116811461077b57600080fd5b60008060408385031215610a1357600080fd5b8235610a1e816109eb565b946020939093013593505050565b634e487b7160e01b600052604160045260246000fd5b60008060408385031215610a5557600080fd5b82359150602083013567ffffffffffffffff80821115610a7457600080fd5b818501915085601f830112610a8857600080fd5b813581811115610a9a57610a9a610a2c565b604051601f8201601f19908116603f01168101908382118183101715610ac257610ac2610a2c565b81604052828152886020848701011115610adb57600080fd5b8260208601602083013760006020848301015280955050505050509250929050565b600060208284031215610b0f57600080fd5b8135610b1a816109eb565b9392505050565b6020808252818101527f4f776e61626c653a2063616c6c6572206973206e6f7420746865206f776e6572604082015260600190565b6020808252601f908201527f5265656e7472616e637947756172643a207265656e7472616e742063616c6c00604082015260600190565b600181811c90821680610ba157607f821691505b60208210811415610bc257634e487b7160e01b600052602260045260246000fd5b50919050565b60008219821115610be957634e487b7160e01b600052601160045260246000fd5b500190565b602081526000610b1a60208301846108cd56fea2646970667358221220ba35d773be98db2dac93957098a104df5da528612724d1aecff38ac92b97afdf64736f6c63430008090033",
  "linkReferences": {},
  "deployedLinkReferences": {}
}